:020000040000FA
:100000000C945D000C9485000C9485000C94850084
:100010000C9485000C9485000C9485000C9485004C
:100020000C9485000C9485000C9485000C9485003C
:100030000C9485000C9485000C9485000C9485002C
:100040000C94C6030C9485000C9436040C94100494
:100050000C9485000C9485000C9485000C9485000C
:100060000C9485000C94850000000008000201003B
:100070000003040700000000000000000000000072
:10008000250028002B0000000000240027002A0083
:10009000040404040404040402020202020203032E
:1000A0000303030301020408102040800102040836
:1000B0001020010204081020870611241FBECFEF74
:1000C000D8E0DEBFCDBF22E0AAE2B2E001C01D92BF
:1000D000A43DB207E1F712E0A0E0B1E0EEE9F2E101
:1000E00002C005900D92AA32B107D9F710E0CDE514
:1000F000D0E004C02197FE010E945507CC35D107FE
:10010000C9F70E9468040C944D090C94000090E01B
:10011000FC01EC55FF4F249180579F4FFC018491C7
:10012000882399F090E0880F991FFC01EA57FF4F50
:10013000A591B491FC01E458FF4F859194918FB73C
:10014000F894EC91E22BEC938FBF0895FC0124818D
:1001500035816217730748F480819181009729F0F7
:10016000860F971FFC018081089580E00895AF926B
:10017000BF92CF92DF92EF92FF920F931F93CF9394
:10018000DF936C017B018B01040F151FEB015E01F6
:10019000AE18BF08C017D10759F06991D601ED918B
:1001A000FC910190F081E02DC6010995892B79F72A
:1001B000C501DF91CF911F910F91FF90EF90DF90DC
:1001C000CF90BF90AF900895FC01538D448D252FA3
:1001D00030E0842F90E0821B930B541710F0CF96E1
:1001E000089501970895FC01918D828D981761F013
:1001F000A28DAE0FBF2FB11D5D968C91928D9F5F2A
:100200009F73928F90E008958FEF9FEF08952FB71F
:10021000F89480912F0290913002A0913102B09118
:1002200032022FBF80933B0290933C02A0933D0289
:10023000B0933E0283E392E00E94F30097FF26C052
:100240002FB7F89480912F0290913002A091310243
:10025000B09132022FBF40913B0250913C0260911D
:100260003D0270913E02841B950BA60BB70B40918B
:100270003702509138026091390270913A02841726
:100280009507A607B707B0F28FEF9FEF0895FC011F
:10029000918D828D981731F0828DE80FF11D858D3B
:1002A00090E008958FEF9FEF0895FC01918D228DCE
:1002B000892F90E0805C9F4F821B91098F73992753
:1002C000089583E392E00E94550121E0892B09F40F
:1002D00020E0822F089580E090E0892B29F00E9491
:1002E000610181110C9400000895FC01A48DA80FF8
:1002F000B92FB11DA35ABF4F2C91848D90E0019668
:100300008F739927848FA689B7892C93A089B18987
:100310008C91837080648C93938D848D981306C028
:100320000288F389E02D80818F7D80830895EF928C
:10033000FF920F931F93CF93DF93EC0181E0888F9F
:100340009B8D8C8D98131AC0E889F989808185FF6F
:1003500015C09FB7F894EE89FF896083E889F98911
:1003600080818370806480839FBF81E090E0DF9113
:10037000CF911F910F91FF90EF900895F62E0B8D66
:1003800010E00F5F1F4F0F731127E02E8C8D8E1121
:100390000CC00FB607FCFACFE889F989808185FF88
:1003A000F5CFCE010E947501F1CFEB8DEC0FFD2F43
:1003B000F11DE35AFF4FF0829FB7F8940B8FEA8943
:1003C000FB8980818062CFCFCF93DF93EC01888D52
:1003D0008823B9F0AA89BB89E889F9898C9185FDC0
:1003E00003C0808186FD0DC00FB607FCF7CF8C914E
:1003F00085FFF2CF808185FFEDCFCE010E94750190
:10040000E9CFDF91CF91089590E0FC01E859FF4FCB
:100410002491FC01EC55FF4F3491FC01E057FF4F54
:10042000E491EE23C9F0222339F0233001F1A8F43E
:10043000213019F1223029F1F0E0EE0FFF1FE458CE
:10044000FF4FA591B4918FB7F894EC91611126C03C
:1004500030953E233C938FBF08952730A9F0283074
:10046000C9F0243049F7809180008F7D03C08091CE
:1004700080008F7780938000DFCF84B58F7784BD35
:10048000DBCF84B58F7DFBCF8091B0008F778093D9
:10049000B000D2CF8091B0008F7DF9CF3E2BDACF64
:1004A0001F93CF93DF93182FEB010E9487002097B3
:1004B00039F460E0812FDF91CF911F910C940402F9
:1004C000CF3FD10511F461E0F5CFE12FF0E0E8591D
:1004D000FF4FE491E33031F140F4E130B1F0E2302C
:1004E000E1F0C038D1057CF7E4CFE73029F1E830FE
:1004F00059F1E430B1F780918000806280938000F0
:10050000D0938B00C0938A0004C084B5806884BDFA
:10051000C7BDDF91CF911F91089584B5806284BDDE
:10052000C8BDF7CF80918000806880938000D09311
:100530008900C0938800EDCF8091B00080688093DF
:10054000B000C093B300E5CF8091B000806280938B
:10055000B000C093B400DDCFCF93DF93EC0160E037
:1005600088E00E94040261E089E00E94040266279C
:1005700077276C1B7D0B8AE0DF91CF910C945002A2
:10058000CF93DF93EC0160E08DE00E94040261E014
:100590008CE00E940402662777276C1B7D0B86E0A7
:1005A000DF91CF910C945002FC0101900020E9F7FB
:1005B0003197AF01481B590BBC0183E392E00C94C7
:1005C000B700CF93DF930E94D402EC0188E191E061
:1005D0000E94D4028C0F9D1FDF91CF9108958F92BE
:1005E0009F92AF92BF92CF92DF92EF92FF920F93C2
:1005F0001F93CF93DF93CDB7DEB7A1970FB6F894D3
:10060000DEBF0FBECDBF6C01990FEE08FF08F7FEED
:1006100047C06DE283E392E00E9497018C0122279C
:100620003327A9012C193D094E095F0919A2CE01F2
:1006300081967C019AE0892E912CA12CB12CCA01C3
:10064000B901A50194010E943307605DF70162932F
:100650007F01211531054105510589F790E080E0C2
:10066000309719F0CF010E94D402080F191F88E1BA
:1006700091E00E94D402800F911FA1960FB6F894CA
:10068000DEBF0FBECDBFDF91CF911F910F91FF90C5
:10069000EF90DF90CF90BF90AF909F908F90089594
:1006A000A701960119A28E010F5D1F4F8AE0C82E87
:1006B000D12CE12CF12CCA01B901A70196010E94AD
:1006C0003307605DF80162938F0121153105410503
:1006D000510589F7309729F0CF010E94D4028C018F
:1006E000C6CF10E000E0C3CFCF93DF93EC01888149
:1006F0009981009711F00E94F707198218821D82D4
:100700001C821B821A82DF91CF9108950F931F9351
:10071000CF93DF93EC0188819981009759F02A816A
:100720003B812617370730F081E0DF91CF911F9191
:100730000F9108958B016F5F7F4F0E948008009793
:1007400059F0998388831B830A832C813D81232B55
:1007500059F7FC011082E8CF80E0E7CFCF93DF9319
:10076000EC0170E060E00E948603811105C0CE01BB
:10077000DF91CF910C9474031D821C826AE171E0B9
:1007800088819981DF91CF910C9446091F920F9235
:100790000FB60F9211242F933F938F939F93AF9394
:1007A000BF9380912F0290913002A0913102B091BD
:1007B000320230912E0223E0230F2D3758F5019697
:1007C000A11DB11D20932E0280932F029093300221
:1007D000A0933102B093320280912A0290912B02B1
:1007E000A0912C02B0912D020196A11DB11D809304
:1007F0002A0290932B02A0932C02B0932D02BF915A
:10080000AF919F918F913F912F910F900FBE0F90BD
:100810001F90189526E8230F0296A11DB11DD2CF77
:100820001F920F920FB60F9211242F933F934F9365
:100830005F936F937F938F939F93AF93BF93EF9348
:10084000FF9383E392E00E947501FF91EF91BF91C6
:10085000AF919F918F917F916F915F914F913F9158
:100860002F910F900FBE0F901F9018951F920F920F
:100870000FB60F9211242F938F939F93EF93FF93B3
:10088000E0914302F09144028081E0914902F091AD
:100890004A0282FD1BC0908180914C028F5F8F7352
:1008A00020914D02821741F0E0914C02F0E0ED5CA6
:1008B000FD4F958F80934C02FF91EF919F918F9107
:1008C0002F910F900FBE0F901F9018958081F4CF3D
:1008D000CF93DF93CDB7DEB72C970FB6F894DEBF7A
:1008E0000FBECDBF789484B5826084BD84B581602D
:1008F00084BD85B5826085BD85B5816085BD8091EB
:100900006E00816080936E00109281008091810062
:10091000826080938100809181008160809381005A
:10092000809180008160809380008091B10084601C
:100930008093B1008091B00081608093B00080917D
:100940007A00846080937A0080917A00826080933C
:100950007A0080917A00816080937A0080917A0099
:10096000806880937A001092C1008DE00E94870019
:100970008CE00E94870086E00E94870088E00E9449
:10098000870089E00E9487008AE00E948700E0914A
:100990004302F091440282E08083E0913F02F091B3
:1009A00040021082E0914102F09142028FEC80837C
:1009B00010924B02E0914702F091480286E080835A
:1009C000E0914502F0914602808180618083E09150
:1009D0004502F0914602808188608083E091450263
:1009E000F0914602808180688083E0914502F09119
:1009F000460280818F7D80838BE191E00E94E1023D
:100A000080E0A82E80E0B82E83E392E00E9455019A
:100A1000181619060CF048C118861F821A86198606
:100A20001C861B86CE0107960E94AE030E9407011A
:100A30000B851C8597FD19C089831A820F5F1F4F94
:100A4000B801CE0107960E948603882379F32F818F
:100A500038858B859C85BE016F5F7F4F820F931F0A
:100A60000E9446091C870B87E1CFCF80D884C11430
:100A7000D10429F076010115110509F072C00B852A
:100A80001C850330110508F4C9C070E060E0CE0198
:100A900007960E94A600882E61E070E0CE010796BE
:100AA0000E94A600982E1A8219821C821B821E8226
:100AB0001D82CE0101960E94AE038B859C858330FA
:100AC000910558F18017910708F48C01EF81F885A2
:100AD000E00FF11F70801082EF80F884F2E0EF0EDB
:100AE000F11CE114F10479F0F70101900020E9F71D
:100AF00031976F01CE18DF08B601CE0101960E9432
:100B00008603811164C0CE0101960E9474038F8117
:100B10009885080F191FF801708270E060E0CE011F
:100B200001960E94A600ED80FE8021E090E08D32CB
:100B300009F020E0022F192F0E151F0508F073C0D1
:100B4000B801CE0101960E94A6000F5F1F4F082E2C
:100B5000000C990BC0970A9778F38DE092E05BC088
:100B6000740147012FEF821A920AF7018081082E43
:100B7000000C990B0E94F006892B91F70150110986
:100B80000C0D1D1DF8018081082E000C990B0E9490
:100B9000F006892B31F00E151F0518F001501109D0
:100BA000F1CFA8014F5F5F4F4E195F095C874B87FC
:100BB000CE14DF0420F4B701C6010E943D09EF8185
:100BC000F8858B859C85E80FF91F108258CFDE824F
:100BD000CD82B70189819A810E94460998CFC601CA
:100BE0000E94C002E0E39E126BC0012B09F050C0CE
:100BF0008FE591E00E94D40290E080E00E94C00264
:100C000081E791E00E94D40290E080E00E94AC0273
:100C10003FC08CE991E00E94E1023AC088EC91E08B
:100C20000E94E1023BC089819A81C12CD12C7601BE
:100C3000009719F00E94B4066B01C60181509F4FC6
:100C40008F3F914030F786018DE291E00E94D402FF
:100C5000C6010E94EF0221E38212C4CF86E491E034
:100C60000E94D402C6010E94EF021C141D040CF065
:100C7000B6CF61E08DE00E94040260E08CE00E944B
:100C80000402B60186E00E94500280E3981234C04C
:100C900089819A81009711F00E94F7078F819885CA
:100CA000009711F00E94F707A114B10409F4ACCE2B
:100CB0000E946101882309F4A7CE0E940000A4CEFF
:100CC000F1E39F12E5CF83E891E00E94D402C801CE
:100CD0000E94EF02C801101611060CF097CF61E0D8
:100CE00088E00E94040260E089E00E940402B801EA
:100CF0008AE00E945002CCCF21E39212C9CF83E850
:100D000091E00E94D402C6010E94EF02E8CFE3E323
:100D1000F2E01382128288EE93E0A0E0B0E08483D8
:100D20009583A683B7838AE091E09183808385ECE5
:100D300090E09587848784EC90E09787868780ECA5
:100D400090E0918B808B81EC90E0938B828B82EC96
:100D500090E0958B848B86EC90E0978B868B118E40
:100D6000128E138E148E08951F93FC0199278827E5
:100D7000BC01E89411911032E9F3193010F01E30E3
:100D8000C8F31B3251F01D3249F4689406C00E942A
:100D9000DB06610F711D811D911D119110531A30D9
:100DA000B0F33EF490958095709561957F4F8F4F8D
:100DB0009F4F1F910895592F482F372F262F660FC9
:100DC000771F881F991F660F771F881F991F620F53
:100DD000731F841F951F660F771F881F991F089523
:100DE00091110C94F906803219F089508550C8F79A
:100DF00008959927882708952F923F924F925F92E6
:100E00006F927F928F929F92AF92BF92CF92DF921A
:100E1000EF92FF920F931F93CF93DF93CDB7DEB77F
:100E2000CA1BDB0B0FB6F894DEBF0FBECDBF099413
:100E30002A88398848885F846E847D848C849B846A
:100E4000AA84B984C884DF80EE80FD800C811B8178
:100E5000AA81B981CE0FD11D0FB6F894DEBF0FBEA7
:100E6000CDBFED010895A1E21A2EAA1BBB1BFD0107
:100E70000DC0AA1FBB1FEE1FFF1FA217B307E40779
:100E8000F50720F0A21BB30BE40BF50B661F771FD1
:100E9000881F991F1A9469F76095709580959095B1
:100EA0009B01AC01BD01CF010895EE0FFF1F05901E
:100EB000F491E02D09940F931F93CF93DF93823029
:100EC000910510F482E090E0E091D202F091D3021B
:100ED00030E020E0B0E0A0E0309799F42115310532
:100EE00009F44AC0281B390B24303105D8F58A8112
:100EF0009B816115710589F1FB0193838283FE015A
:100F000011C0408151810281138148175907E0F0D7
:100F10004817590799F4109761F012960C9312979D
:100F200013961C933296CF01DF91CF911F910F91B1
:100F300008950093D2021093D302F4CF2115310506
:100F400051F04217530738F0A901DB019A01BD01A6
:100F5000DF01F801C1CFEF01F9CF9093D302809365
:100F6000D202CDCFFE01E20FF31F81939193225065
:100F7000310939832883D7CF2091D0023091D10213
:100F8000232B41F420910201309103013093D102CF
:100F90002093D002209100013091010121153105EB
:100FA00041F42DB73EB74091040150910501241B37
:100FB000350BE091D002F091D102E217F307A0F4D3
:100FC0002E1B3F0B2817390778F0AC014E5F5F4F9F
:100FD0002417350748F04E0F5F1F5093D1024093FE
:100FE000D002819391939FCFF0E0E0E09CCFCF932C
:100FF000DF930097E9F0FC01329713821282A091EF
:10100000D202B091D302ED0130E020E01097A1F4BC
:1010100020813181820F931F2091D0023091D10223
:101020002817390709F061C0F093D102E093D0028C
:10103000DF91CF910895EA01CE17DF07E8F54A81E5
:101040005B819E0141155105B1F7E901FB83EA83FC
:1010500049915991C40FD51FEC17FD0761F48081A8
:1010600091810296840F951FE9019983888382817B
:1010700093819B838A83F0E0E0E012968D919C91AE
:1010800013970097B9F52D913C911197CD010296D8
:10109000820F931F2091D0023091D1022817390777
:1010A00039F6309751F51092D3021092D202B093D4
:1010B000D102A093D002BCCFD383C283408151819F
:1010C000840F951FC817D90761F44E5F5F4F888161
:1010D0009981480F591F518340838A819B81938353
:1010E00082832115310509F0B0CFF093D302E0934C
:1010F000D2029ECFFD01DC01C0CF13821282D7CF76
:10110000B0E0A0E0E6E8F8E00C94FE068C01009761
:1011100051F4CB010E945B078C01C801CDB7DEB74B
:10112000E0E10C941A07FC01E60FF71F9C01225026
:101130003109E217F30708F49DC0D901CD91DC9184
:101140001197C617D70798F0C530D10530F3CE01F7
:1011500004978617970708F3C61BD70B2297C193EE
:10116000D1936D937C93CF010E94F707D6CF5B019B
:10117000AC1ABD0A4C018C0E9D1EA091D202B091FA
:10118000D302512C412CF12CE12C109731F5809198
:10119000D0029091D1028815990509F05CC04616DD
:1011A000570608F058C08091000190910101009706
:1011B00041F48DB79EB74091040150910501841B05
:1011C000950BE817F90708F055C0F093D102E093AA
:1011D000D002F90171836083A0CF8D919C9111970A
:1011E00012966C90129713967C901397A815B905D8
:1011F00059F56C0142E0C40ED11CCA14DB0420F185
:10120000AC014A195B09DA011296159780F06282E7
:10121000738251834083D9016D937C93E114F1046F
:1012200071F0D7011396FC93EE93129776CF229626
:101230008C0F9D1FF90191838083F301EFCFF09311
:10124000D302E093D20269CF4816590608F42C0164
:101250007D01D3019ACFCB010E945B077C010097EF
:1012600049F0AE01B8010E943D09C8010E94F7078C
:10127000870153CF10E000E050CFFB01DC0102C03A
:1012800001900D9241505040D8F70895FB01DC01C8
:1012900001900D920020E1F70895F894FFCF00002F
:1012A000D4028000000000009701B700E400E401D0
:1012B0005501F30047010D0A0053657269616C2006
:1012C000626567696E203936303000596F75206568
:1012D0006E746572656420746865206E756D6265F4
:1012E000723A20004D6F746F722031206E6F77203C
:1012F00072756E6E696E672061743A20004D6F746E
:101300006F722031206E6F772073746F7020004DE4
:101310006F746F722032206E6F772073746F70203D
:10132000004D6F746F722032206E6F772072756E71
:101330006E696E672061743A2000506C6561736558
:1013400020656E7465722061206E756D6265722015
:101350006265747765656E202D32353520616E6467
:10136000203235352E00496E76616C696420696ED5
:101370007075742E20506C65617365206D616B65AE
:1013800020737572652074686520696E70757420AD
:10139000686173206174206C65617374203320630D
:1013A0006861726163746572732E00506C6561735D
:1013B0006520656E74657220612076616C696420B9
:0813C0006E756D6265722E006E
:107E0000112484B714BE81FFF0D085E080938100F7
:107E100082E08093C00088E18093C10086E0809377
:107E2000C20080E18093C4008EE0C9D0259A86E02C
:107E300020E33CEF91E0309385002093840096BBD3
:107E4000B09BFECF1D9AA8958150A9F7CC24DD24C4
:107E500088248394B5E0AB2EA1E19A2EF3E0BF2EE7
:107E6000A2D0813461F49FD0082FAFD0023811F036
:107E7000013811F484E001C083E08DD089C08234E0
:107E800011F484E103C0853419F485E0A6D080C0E4
:107E9000853579F488D0E82EFF2485D0082F10E0AE
:107EA000102F00270E291F29000F111F8ED06801E7
:107EB0006FC0863521F484E090D080E0DECF843638
:107EC00009F040C070D06FD0082F6DD080E0C81688
:107ED00080E7D80618F4F601B7BEE895C0E0D1E017
:107EE00062D089930C17E1F7F0E0CF16F0E7DF06D8
:107EF00018F0F601B7BEE89568D007B600FCFDCFD4
:107F0000A601A0E0B1E02C9130E011968C91119780
:107F100090E0982F8827822B932B1296FA010C0160
:107F200087BEE89511244E5F5F4FF1E0A038BF0790
:107F300051F7F601A7BEE89507B600FCFDCF97BE46
:107F4000E89526C08437B1F42ED02DD0F82E2BD052
:107F50003CD0F601EF2C8F010F5F1F4F84911BD097
:107F6000EA94F801C1F70894C11CD11CFA94CF0C13
:107F7000D11C0EC0853739F428D08EE10CD085E9AC
:107F80000AD08FE07ACF813511F488E018D01DD067
:107F900080E101D065CF982F8091C00085FFFCCF94
:107FA0009093C60008958091C00087FFFCCF809118
:107FB000C00084FD01C0A8958091C6000895E0E648
:107FC000F0E098E1908380830895EDDF803219F02E
:107FD00088E0F5DFFFCF84E1DECF1F93182FE3DFCA
:107FE0001150E9F7F2DF1F91089580E0E8DFEE27F6
:047FF000FF270994CA
:027FFE00040479
:00000001FF
